:020000040800F2
:10000000000002202D030008150300081503000856
:100010001503000815030008150300081503000860
:100020001503000815030008150300081503000850
:100030001503000815030008150300081503000840
:100040001503000815030008150300081503000830
:100050001503000815030008150300081503000820
:100060001503000815030008150300081503000810
:100070001503000815030008150300081503000800
:1000800015030008150300081503000815030008F0
:1000900015030008150300081503000815030008E0
:1000A00015030008150300081503000815030008D0
:1000B00015030008150300081503000815030008C0
:1000C00015030008150300081503000815030008B0
:1000D00015030008150300081503000815030008A0
:1000E0001503000815030008150300081503000890
:1000F0001503000815030008150300081503000880
:10010000150300081503000815030008150300086F
:10011000150300081503000815030008150300085F
:10012000150300081503000815030008150300084F
:10013000150300081503000815030008150300083F
:10014000150300081503000815030008150300082F
:10015000150300081503000815030008150300081F
:10016000150300081503000815030008150300080F
:1001700015030008150300081503000815030008FF
:1001800015030008150300081503000815030008EF
:1001900015030008150300081503000815030008DF
:1001A00015030008150300081503000815030008CF
:1001B00015030008150300081503000815030008BF
:1001C00000F002F800F044F814A696E8000CB244DF
:1001D000B344DA4501D100F03BF8BAE80F000FA6AE
:1001E00096E83000A5EB040504EB0607AAEB07042C
:1001F000A7F101074FEA15154FEA3414A4F10104E1
:10020000AC4201D300F024F813F0010F18BFFB1A21
:1002100043F0010300F001F8DBE71847D4010000C8
:10022000E4010000704700000023002400250026A0
:10023000103A28BF78C1FBD8520728BF30C148BF49
:100240000B6070471FB500F0C5F81FBD10B510BD9D
:1002500000F00DF81146FFF7F5FF00F06FF800F021
:100260002BF803B4FFF7F2FF03BC00F04DF875461E
:1002700000F02CF8AE4605006946534620F0070012
:10028000854618B020B500F025F8BDE820404FF0B5
:1002900000064FF000074FF000084FF0000BAC468F
:1002A000ACE8C009ACE8C009ACE8C009ACE8C009DA
:1002B00021F007018D46704710B50446AFF300806A
:1002C0002046BDE81040FFF7CCBF00000048704753
:1002D0000000002000B585B0694601AA0A604FF011
:1002E0001600ABBE0198002802BF0548C01D20F0D3
:1002F00007000399029A049B05B000BD09000000A5
:10030000600000207047000001491820ABBEFEE7E6
:1003100026000200FEE781B000900098411E009187
:1003200008B100BFF9E701B070470000DFF808D05E
:1003300000F004F8FEE70000000002202048214EF3
:10034000214C224F224D4FF004084FF002094FF08C
:10035000010A016841F0800101600068306820F006
:100360007C703060306840F0A8703060706820F4B5
:10037000E0507060B06820F07C70B060F06820F0F1
:100380007C70F060706920F4E0507061706968F30F
:100390008C2070612046B847706969F38C207061C9
:1003A0002046B84770696AF38C2070612046B847D0
:1003B000706920F4E05070612846B847E6E700BF56
:1003C00030380240001C0240001BB7001703000831
:1003D000808D5B00F1EE100A4FF6FF71C0F2C03164
:1003E00020EA010040F04070E1EE100A7047000082
:1003F000000400080000002060000000280200083F
:040000050800032DBF
:00000001FF
