:020000040800F2
:10000000A8E6002061030008A1B70008C595000814
:100010009DB70008C537000831E100080000000066
:1000200000000000000000000000000001B900080E
:100030008538000800000000B1B7000825B90008A5
:100040007B0300087B0300087B0300087B03000898
:100050007B0300087B030008893800087B03000845
:100060007B03000891380008993800087B030008DA
:10007000353800087B0300087B030008413800087E
:100080007B0300087B0300087B0300087B03000858
:10009000C93700087B0300087B030008A13800086B
:1000A0007B0300085DBA000851BA00087B03000812
:1000B0007B0300087B0300087B0300087B03000828
:1000C0007B030008D5950008C99500087B0300084C
:1000D00015B80008A1BD00087B0300087B030008D9
:1000E0007B0300087B0300087B0300087B030008F8
:1000F0007B0300087B0300087B0300087B030008E8
:100100007B0300087B0300087B0300087B030008D7
:100110007B0300087B0300087DBA000889BA000849
:100120004D380008593800087B030008653800087E
:100130007B0300087B0300087B0300087B030008A7
:10014000D53700087B0300087B030008A5B700082B
:100150007B0300087B0300087B030008ADBD00089B
:100160007B0300087B0300087B0300087B03000877
:100170007B0300087B0300087B03000800000000ED
:100180007B0300087B03000800F002F800F0D9F8B8
:1001900014A696E8000CB244B344DA4501D100F04D
:1001A000D0F8BAE80F000FA696E83000A5EB0405DA
:1001B00004EB0607AAEB0704A7F101074FEA1515A0
:1001C0004FEA3414A4F10104AC4201D300F0B9F8B1
:1001D00013F0010F18BFFB1A43F0010300F001F800
:1001E000DBE7184768D5020088D502000A444FF0C3
:1001F000000C10F8013B13F0070408BF10F8014B86
:100200001D1108BF10F8015B641E05D010F8016BCA
:10021000641E01F8016BF9D113F0080F1EBF10F82E
:10022000014BAD1C0C1B09D16D1E58BF01F801CB51
:10023000FAD505E014F8016B01F8016B6D1EF9D5D4
:100240009142D6D37047000070470000002300247D
:1002500000250026103A28BF78C1FBD8520728BFD6
:1002600030C148BF0B6070476E2901F0FC807029D7
:1002700001F0738266292CF0AF8265292CF0AC82E4
:1002800067292CF0A98261292CF0A88203681B0A37
:1002900028BF41F08001692900F04681642900F0FF
:1002A0004381752900F040816F2901F0018278298E
:1002B00001F03F82E92901F09B81E42901F0988156
:1002C000F52901F09581EF2901F0FE81F82901F06F
:1002D0003E820368DB0928BF41F08001632900F0FA
:1002E0001D87732900F02287E32901F04586F32951
:1002F00001F04A86002070471FB52CF024F99DE8D4
:10030000030000F0E5FF00F0C3FF0400002000211F
:100310002AF00CFC401C6060002000212AF01CFC2C
:10032000E06001F02DFCAFF3008001F05BFB00F01A
:10033000EDFB1FBD10B5002001F0F0FB01F0BBFB91
:1003400010BD01F048FC1146FFF7D6FF27F0E2FB95
:1003500002F0BAF803B4FFF7EDFF03BC27F0C8FBC7
:100360000948804709480047FEE7FEE7FEE7FEE749
:10037000FEE7FEE7FEE7FEE7FEE7FEE70448054985
:10038000054A064B70470000F9B9000889010008CA
:10039000A8CE0020A8E60020A8DE0020A8DE0020CD
:1003A000704753EA020C00F069802DE9F04B4FF0E2
:1003B0000006002B1FBFB3FA83F503FA05F424FAF5
:1003C00005F65E4012BF1643B2FA82F502FA05F452
:1003D000C5F120051EBF22FA05FC44EA0C042035B5
:1003E00056EA044C4FEA144418BF641C4FF000084E
:1003F0004FF00009904271EB030C39D3002919BF6B
:10040000B1FA81F701FA07F6B0FA80F700FA07F6B9
:10041000C7F120071EBF20FA07FC46EA0C0620376A
:10042000B6FBF4FCA7EB0507103F07F01F0BCBF161
:1004300020062CFA06F60CFA0BFB44BFB346002646
:10044000202FA4BF5E464FF0000B5BEA060C08BFEE
:100450004FF0010B19EB0B0948EB0608ABFB027CD4
:1004600006FB02CC0BFB03CCC01B71EB0C01C1E7FC
:100470000B46024641464846BDE8F08B13B508439B
:1004800018BF4FF0FF300146AFF30080BDE81C40BD
:10049000704700000FB41CB50C0007AA009007D0ED
:1004A0004142A14202D32044401E01E04FF0FF3000
:1004B000074B7B4469460190069800F00AFE002134
:1004C000002C01D0009A11701CBC5DF814FB0000D8
:1004D000430C000070B50C460546012A05D028786B
:1004E000800600D5EA69002302E0012305E05B1CD9
:1004F000934202D2E05C0028F9D1A869E618C01A3C
:10050000A861286A18442862284600F073FF04E0B6
:10051000D5E9012114F8010B9047B442F8D32846DD
:1005200000F07EFF70BD00002DE9F041064600247A
:1005300010687529314616A510D000F082FF0028FA
:1005400002DA404213A507E031688A0701D512A5F7
:1005500002E0490704D511A5012401E000F07AFF6B
:1005600000210A2206F1240709E0B0FBF2FCB0FBEF
:10057000F2F302FB1C00303078541846491C002866
:10058000F3D123462A463046BDE8F04100F09FBB38
:10059000000000002D0000002B00000020000000E3
:1005A0002DE9F05F894604464FF0000ADFF874B188
:1005B000FB44C0F820A02046E1688847002874D09A
:1005C000252806D0D4E901219047206A401C2062EA
:1005D000F1E700265F462046E16888472028054667
:1005E00007DB312D05D2781910F8200C08B106432D
:1005F000F1E7B00701D526F00406C4F81CA00027D7
:10060000C4F818A02A2D09D028462AF011FA38B3C8
:1006100004EB8708303DC8F8185019E059F8041B5E
:10062000204604EB87029161E1688847012F054667
:1006300018D1E069002820DA26F020061DE0D8F85D
:10064000180000EB800005EB40003038C8F81800B7
:100650002046E168884705462AF0EAF90028EED1ED
:10066000012F0AD02E2D08D12046E16888477F1C33
:100670000546022F46F02006C4DBA069002803DAF5
:10068000404246F00106A061F00701D026F01006B6
:100690006C2D0BD0682D09D04C2D39D06A2D35D05A
:1006A000742D35D07A2D33D016E038E0E1682F462E
:1006B00020468847B842054609D16C2F26D04FF412
:1006C0008060E168064320468847054604E06C2FB9
:1006D0001AD04FF4807006430DB3A5F141001928DC
:1006E00002D8203546F400664A4629462046266050
:1006F0004E46FFF7B9FD80B101280BD0F61D26F05C
:10070000070000F1080956E74020E4E78020D8E719
:100710000020D6E706F104094DE7284652E7206A93
:10072000BDE8F09F7AC4020070B5064600F00EFAEC
:100730000468054630460A22002100F002F82C60C9
:1007400070BD2DE9F04791460F46804604460026CD
:1007500014F8015B2DB100F0F1F90068405DC007AD
:10076000F6D12B2D02D02D2D18D0641E4A463946C5
:10077000204600F0DFFC27B13968A14201D1C7F85B
:1007800000804FF0020471050BD54042002803DDC4
:1007900000F0DCF90460A007BDE8F08746F480664D
:1007A000E4E70028F8DA00F0D1F904606FF00040C7
:1007B000F2E70B460146184600F01ABD014A00F068
:1007C0003BBD00000000002040EA010310B59B077C
:1007D0000FD1042A0DD310C808C9121F9C42F8D0AB
:1007E00020BA19BA884201D9012010BD4FF0FF305C
:1007F00010BD1AB1D30703D0521C07E0002010BD72
:1008000010F8013B11F8014B1B1B07D110F8013BFD
:1008100011F8014B1B1B01D1921EF1D1184610BDDE
:1008200010B5431C02E010F8011B71B18107FAD129
:100830004FF0013202C88C1A8C4314EAC211F9D06D
:10084000C01A0A0603D0C01E10BDC01A10BD0A048B
:1008500001D0801E10BD0902FCD0401E10BD40EA30
:10086000010370B59B072ED14FF00136042A2AD31D
:1008700008C810C99D1B9D43121F15EAC61517D045
:10088000D8B2E1B2401A50EA056110D198B2A1B2D3
:10089000401A50EA05410AD123F07F4024F07F41FD
:1008A000401A50EA052102D1180EA0EB146070BD69
:1008B000A342DBD018BA21BA884201D9012070BD09
:1008C0004FF0FF3070BD0AB9002070BD10F8013B39
:1008D00011F8014B63B1A3420AD1521E08D010F89F
:1008E000013B11F8014B1BB1A34201D1521EEDD1C6
:1008F000181B70BD032A40F2308010F0030C00F08A
:10090000158011F8013BBCF1020F624498BF11F849
:1009100001CB00F8013B38BF11F8013BA2F1040202
:1009200098BF00F801CB38BF00F8013B11F003037A
:1009300000F02580083AC0F0088051F8043B083ADE
:1009400051F804CBA0E80810F5E7121D5CBF51F880
:10095000043B40F8043BAFF30080D20724BF11F8FA
:10096000013B11F801CB48BF11F8012B24BF00F85F
:10097000013B00F801CB48BF00F8012B704710B5D0
:10098000203AC0F00B80B1E81850A0E81850B1E848
:100990001850A0E81850203ABFF4F5AF5FEA027C87
:1009A00024BFB1E81850A0E8185044BF18C918C0B7
:1009B000BDE810405FEA827C24BF51F8043B40F858
:1009C000043B08BF7047D20728BF31F8023B48BF3D
:1009D00011F8012B28BF20F8023B48BF00F8012B7B
:1009E000704702F0FF0343EA032242EA024200F0AA
:1009F00024B84FF000020429C0F0128010F0030C5C
:100A000000F01B80CCF1040CBCF1020F18BF00F801
:100A1000012BA8BF20F8022BA1EB0C0100F00DB8B0
:100A20005FEAC17C24BF00F8012B00F8012B48BF0E
:100A300000F8012B70474FF0000200B513469446B2
:100A40009646203922BFA0E80C50A0E80C50B1F126
:100A50002001BFF4F7AF090728BFA0E80C5048BF3A
:100A60000CC05DF804EB890028BF40F8042B08BFD8
:100A7000704748BF20F8022B11F0804F18BF00F8D4
:100A8000012B70470000000030B44FF0013C50F8DB
:100A9000042B51F8043BCCFA52F4D51A20D1FCB9FE
:100AA00050F8042B51F8043BCCFA52F4D51A17D164
:100AB000B4B950F8042B51F8043BCCFA52F4D51ACF
:100AC0000ED16CB950F8042B51F8043BCCFA52F417
:100AD000D51A05D1002CDAD030BC4FF00000704799
:100AE00029BAB1FA81F111F01801D1F12000844046
:100AF000F2D1CA40CB4012F0FF0213F0FF0330BC2A
:100B0000D01A7047704770477047000008487CB59E
:100B10007844009007487844009C0546019004E022
:100B20002046016808448047241DAC42F8D17CBDB2
:100B300084CD020092CD02007047000010B500F095
:100B4000A7FB001D10BD00BFE59F020000487047D5
:100B5000E408002070B5064600F096FB056806F133
:100B60000B0020F00704B4429CBF002070BD2B4650
:100B70006A68BAB11068A04210D304F10801884233
:100B80003CBF5068586007D3516810194160116824
:100B9000091B016058601460101D70BD1346526837
:100BA000002AE7D12146284600F07EFB0028DED14E
:100BB00070BD70B50446051F00F066FB0068002C90
:100BC00014BF446870BD002C18BFAC423CBF204627
:100BD0006468F8D301680A18AA4218BF456003D1B7
:100BE0002A6805461144016028684119A1421CBFCA
:100BF0006C6070BD6168696021680844286070BDE0
:100C00002DE9F04791460C46804600F03DFB076811
:100C1000604234EA000001D1042C02D20520BDE874
:100C2000F087601E40F0070609F10B0020F0070571
:100C30004D4539D93B467A6882B31468101D40424D
:100C400006EA000C644525D9A4EB0C00854221D8A6
:100C5000BCF1000F0BD0104601686244A1EB0C01FF
:100C6000116041685160C0F800C0586003461168C7
:100C700005F10800814205D35019491B0160156038
:100C80005860034652F8040F58600020C8F800204E
:100C9000BDE8F08713465268002ACED1294638466F
:100CA00000F002FB0028C5D10620BDE8F08710B592
:100CB000FFF74CFF006810BD10B50446FFF746FF74
:100CC000046010BD0B460146184600F021BC2DE91A
:100CD000F0470D4699469246044600F12408016803
:100CE000880604D5E06921F01001216000E00120B0
:100CF000A84201DD471B00E00027A1697A1902EB39
:100D00000900081AA0612078C00602D4204600F02D
:100D100071FB002608E0D4E901211AF8060090478B
:100D2000206A401C761C20624E45F4DB2078C00609
:100D30000AD5204600F05EFB06E0D4E90121302010
:100D40009047206A401C2062381EA7F10107F4DC9E
:100D500007E0D4E9012118F805009047206A401CFB
:100D60002062281EA5F10105F3DC204600F058FBA7
:100D70002078000602D50220BDE8F0870120FBE7BD
:100D80002DE9F04F1C4683460E468BB0D2E9003069
:100D9000149DC10F009120F00041080D01D00122E7
:100DA00000E00022801A0027DA1B61EB0051914617
:100DB0000A438846A0F2324A0AD0002108462BF0A6
:100DC000FBFC10F4400F14D00099A1B1400213E0D5
:100DD000012D02D00020302105E0E043CDE90607D7
:100DE00005E03154401CA042FBDBCDE906740895B8
:100DF00029E0002005E00002002801DA022000E0DE
:100E00000120012D08950FD00021CDE904103046B6
:100E1000CDE902A4CDE9009809AA06A900F00EFDCB
:100E20000790099810B105E00121EEE7102108466E
:100E30002BF0C2FC012D06D1DDE90610641C214413
:100E4000884200DA0897079806AC375494E80E00F9
:100E5000CBE90012CBF808300BB0BDE8F08F2DE9DC
:100E6000F04F88460446D21D22F00701ADF5477DBC
:100E7000D1E90001CDE9BE0128F033FD0246BF985B
:100E8000C00F01D02D2007E02068810701D52B205D
:100E900002E0202101EAC000032AC09001D0072A05
:100EA00005DB03464146204600F0F2FA08E12078CF
:100EB000800601D5E06900E0062040F2F123B8F198
:100EC000650F814606D0B8F1660F16D0B8F1670FEE
:100ED0006BD12FE00020B9F53C7F009001DC09F1D7
:100EE0000103BEAA01A9C1A8FFF74AFFDDE9C1704D
:100EF000002609F10105834644E001204B4600909D
:100F00004FF00047BEAA01A9C1A8FFF739FFDDE9EC
:100F1000C2B0C1995D46002610B909F101000D1853
:100F2000B9EB050003D4C0F1FF3609F10105A5EBCB
:100F3000090028E0B9F1010F01DA4FF001090020A2
:100F400099450090484600DC0346BEAA01A9C1A805
:100F5000FFF716FFDDE9C1704D4600268346207875
:100F600000070AD4AB4500DA5D4601A8012D04DD77
:100F7000411911F8011C302907D04F4502DA17F149
:100F8000040F04DA012082460FE06D1EEEE7002F09
:100F900002DCED1B3E4403E0781CA84200DD7D1C12
:100FA000B81B00F1010A4FF000472078000703D476
:100FB000AA4501DB4FF0FF3A0021B7F1004F0DF2D7
:100FC00017388DF8171324D002202B23002F01DAB5
:100FD0007F422D230A21021EA0F1010000DC5FB137
:100FE00097FBF1FC97FBF1F201FB1C7C17460CF11F
:100FF000300C08F801CDEEE7A8F10100037021885C
:10100000090501D5452100E06521A0F1010800F89E
:10101000011CC098C4A9A1EB0807FF1D00B1012065
:10102000411901EBEA70A1693844081A401EA06119
:101030002078C00602D4204600F0DCF9C09828B120
:10104000D4E901219047206A401C20622078C00624
:1010500022D5204600F0CEF91EE0002E04DBB34579
:1010600002DD01A8805D00E03020D4E90121904735
:10107000206A401C2062761CAAF101005FEA000A87
:101080000AD100F005F9C0680168405CD4E901218B
:101090009047206A401C2062281EA5F10105DCDC77
:1010A00007E0D4E9012118F8010B9047206A401CA1
:1010B0002062381EA7F10107F3DC204600F0B0F9EA
:1010C00003200DF5477DC8E601694A1C02610878D6
:1010D000704700B58FB0CDE9013100210591054978
:1010E0007944CDE9031011466846FFF759FA0FB06D
:1010F00000BD0000E5FFFFFFD1E900239A4202D2C4
:10110000531C0B601070704710B5436913B1AFF3F7
:10111000008001E0FFF7DEF9012010BD127800F138
:1011200024010A7000224A700122EDE711684FF095
:10113000FF32E9E72DE9F05F824615468B4600272E
:101140000AF10104B9460078302801D09DB113E0BE
:1011500014F8010B0127782803D0582801D045B195
:101160000AE00DB1102D07D1002714F8010B10254E
:1011700002E0082500E00A250026B0460EE005FB47
:10118000080005FB06F101271FFA80F801EB104665
:10119000B6F5803F00D3B94614F8010B294600F09C
:1011A000E7FA0028EBDABBF1000F05D00FB1641E9F
:1011B00000E05446CBF80040B9F1000F06D0FFF72D
:1011C000C5FC02210160C81EBDE8F09F48EA064048
:1011D000FAE70023036000F0FBBA10B5002000F02E
:1011E000D5FCFFF7A7F8BDE81040012026F080BC31
:1011F0002DE9F041074615460E461020FFF7AAFCE0
:10120000040013D06760C4E902650948AFF30080A9
:1012100000F042F80168216006490460002008607F
:101220000348AFF300800020BDE8F0810120FBE718
:1012300014000020100000202DE9F04115460E4654
:10124000040002D12C6804B90BA4204600F0B5FCC0
:101250000444207870B127463146384600F09DFCA2
:101260000444207810B1002004F8010B38462C60AB
:10127000BDE8F0810027F9E7000000000048704752
:10128000E40800200020704700487047EC08002068
:101290000048704704090020004870471C090020DE
:1012A000704770477047704738B504460A460020BB
:1012B0006946AFF30080002808BF38BD0246009998
:1012C000204600F0ADFC012038BD012001F030B90E
:1012D000F8B5AFF30080054600200C460C2000BF97
:1012E0000646A819A0420DD9324669460020AFF340
:1012F0000080070008BF01F01BF90098A04218BF4A
:101300000546C419FFF7C0FF05600746F01D20F031
:1013100007004619284600F00AF8B44208BFF8BD95
:10132000A21B31463868BDE8F84000F079BC0021C6
:101330000160416070470C20704730B5B0F10A027F
:1013400071F100034FEA900E4EEA817EB0EB0E0081
:1013500061EB91014FEA101E4EEA017E10EB0E0088
:1013600041EB11114FEA102E4EEA016E10EB0E0008
:1013700041EB11214FEA104E4EEA014E10EB0E00E8
:1013800041EB1141401841F100014FEAD00040EA21
:1013900041704FEAD1014FEA810444EA907410EBA6
:1013A000800544EB01046D1944EB0404521BA34176
:1013B0004FF0000348BF0A3200D530BD401C41F158
:1013C000000130BD1FB584B000200A9C06AB04AA02
:1013D00002A90094AFF3008018B1DDE9020108B062
:1013E00010BD0348204001F095F800200146F6E7C3
:1013F0000000207C70B5044685690068C10601D5EF
:10140000302600E02026C00707D070BDD4E90121B6
:1014100030469047206A401C20626D1EF6D570BD94
:1014200070B5044685690078C00707D170BDD4E95E
:10143000012120209047206A401C20626D1EF6D5B5
:1014400070BD09684A0501D540B27047C905FCD591
:1014500000B2704709684A0501D5C0B27047C90596
:10146000FCD580B2704711680268006A530501D547
:1014700008700AE0D30501D5088006E0130603D5FD
:10148000C217C1E9000200E00860012070470000B7
:101490002DE9F0411F46044603260168072A01F49E
:1014A000006004DB08B116A505E016A503E008B14D
:1014B00015A500E015A521F010002060A069C01E50
:1014C000A0610FB1401EA0612046FFF793FF4FB10E
:1014D000D4E9012138469047206A401C2062C01C94
:1014E000206206E0206AFAE7D4E9012115F8010B31
:1014F0009047761EF8D22046FFF792FFBDE8F081B4
:101500004E414E006E616E00494E4600696E6600A7
:10151000074B70B50D467B44FFF7DBFD04462846BC
:1015200000F0E8FE10B14FF0FF3070BD204670BDF6
:10153000259502002DE9FF5F15468A460446DFF82F
:10154000AC80F8440027D8E900103E46CDE90010F1
:1015500010E03AF816106A4602A800F091FF411C0C
:1015600007D02178890603D5E269391891420DD850
:101570000744761C2078800602D5E069B84205DD74
:10158000AE42E6DB3AF816000028E2D1A069C01BA3
:10159000A0612046FFF72EFFD8E90010CDE900102A
:1015A000002017E03AF818106A4602A800F068FF19
:1015B000B0F1FF3F81460BD000250DF1080B05E08F
:1015C000D4E901211BF8050090476D1C4D45F7D368
:1015D00008F10100B0428046E4DB206A3844206212
:1015E0002046FFF71DFFBDE8FF9F00001AB502006F
:1015F0002DE9F0418046D21D22F007020025D2E9F4
:101600000002F52915A614D0011E72F1000106DAB8
:101610000023D0EB030063EB020211A608E0D8F828
:1016200000108B0701D50FA602E0490701D50EA6D1
:1016300001251146002408F1240704E0FFF77DFE90
:1016400030323A55641C50EA0102F7D12B4632463B
:1016500021464046BDE8F041FFF739BB00000000DD
:101660002D0000002B0000002000000030B40021FD
:1016700000F1240408E002F00705D208303542EA00
:101680004372DB086554491C52EA0305F3D1046830
:10169000002310A2250708D504F020040C4304D031
:1016A000C46901230CA2641EC46130BCFFF70FBBE8
:1016B00010B5044621461068FFF7CCFE02462046CE
:1016C000BDE810400023D1E7D21D22F00701D1E987
:1016D0000023CBE70000000030000000F0B40D460E
:1016E0000188090502D5214C7C4402E01F4C7C4452
:1016F0000E34002100F1240608E002F00F07120961
:10170000E75D42EA03721B097754491C52EA03075A
:10171000F3D102780023120704D5702D06D009B149
:10172000022311342246F0BCFFF7D1BA0123103452
:10173000F8E770B504460D4621461068FFF78AFEAB
:10174000024629462046BDE870400023C6E7D21D68
:1017500022F00703D3E90023C0E70368126843F0CF
:10176000200303600823C3610023B7E77CB30200B2
:101770003A2800D2303820F02002412A01D3A2F1C9
:101780003700884201D34FF0FF3070470FB40B0091
:1017900010B54FF000048AB00FA900910E99CC60EB
:1017A000234C7C44234A7A44CDE9064200D00423EA
:1017B0006FF00042CDE901321F4A7A446B4608922D
:1017C000024600202BF0EEF80AB010BC5DF814FBC6
:1017D000F0B507464FF0FF301E4615460C463B4617
:1017E00085B06A460091CDE90101314600200490A0
:1017F00004A8FFF7CBFF04990346601825B109B18F
:10180000024600E022462A6000290ED0002B02DDAD
:101810000099814209D03B466A463146001B00943C
:10182000CDE9010404A8FFF7B1FF05B0F0BD000049
:10183000EB07000005080000970400002DE9FF4FAA
:101840000446ADF5437DD1AB93E82500D099DDF892
:1018500054830091CDE90102C0AAC1A903A800F0F8
:10186000CFFC0346C198D499064641B11D446D1C76
:10187000012D04DAC5F10101012508440B44A646F7
:101880004FF0FF324FF0390B002124E0401EB042F0
:1018900001D300270CE0DDF800C387083CF817707F
:1018A0004FEA807C4FEA1C7C27FA0CF707F00F0701
:1018B0006D1E092F0EDA002A02DB303204F8012BEC
:1018C0005A46002903DD491E04F8012BF9E70021DF
:1018D0003A4600E0491C08B1002DD7DC4FF0010C5E
:1018E000B8F1020F08D0B8F1010F07D0A0B1401E27
:1018F000B04205D300270CE0002522E0022520E0BD
:10190000C09F850837F8155087073F0FFD4005F049
:101910000F07052F02DB04E04FF000074FF0000532
:1019200007E003DC002901DCD50701D0012500E038
:1019300002250FB14FF0000C022D02D0BCF1000FB8
:1019400022D04FF00009DDF800A313E0401EB042A2
:1019500001D300270BE04FEA90083AF818704FEADD
:1019600080784FEA187827FA08F707F00F070FB1C9
:10197000012004E00028E9D1B9F1000001D04FF0C6
:10198000000C022D00D10546012D02F101000AD004
:1019900010B1303204F8012B5846002916DD491EDB
:1019A00004F8010BF9E718B1313204F8012B06E015
:1019B000312004F8010BD4985B1C00B9491E30207B
:1019C000002903DD491E04F8010BF9E7C498036000
:1019D000C598C0F800C00DF5477DA4EB0E00BDE82A
:1019E000F08F000010B542485421FFF724F8414819
:1019F0005421FFF720F840485421FFF71CF83F49D5
:101A00003B483C4A3F4B08603D490A603A491960EF
:101A1000531C0365481C1065012008653B48344A87
:101A200039A1784400F08EFC20B9384878440A384F
:101A300000F077FD37482F4A35A1784400F082FC4A
:101A400020B9344878440A3800F06BFD32482A4AFD
:101A50002FA1784400F076FC20B92F4878440A384A
:101A600000F05FFD40232248DC000021224600F008
:101A700045FC20B125487844543800F052FD1D48FB
:101A800022464023002100F039FC20B1214878444F
:101A9000543800F046FD184822461023002100F07B
:101AA0002DFC002806D01C487844BDE8104056386C
:101AB00000F037BD10BD104870B5006D20F0010476
:101AC0000B4800F0B7FC0B4800F0B4FC0A4800F0EB
:101AD000B1FC09E0206D20F00105204600F0AAFCD1
:101AE0002046FFF766F82C46002CF3D170BD0000AD
:101AF000E80700203C080020900800200400002097
:101B0000080000200C00002072000000B0B30200AA
:101B1000770000009CB302007CB302002DE9F8437B
:101B200006461548AFF30080FFF7B6FB134F81461A
:101B3000E8464D4616E026B1E068B04201D02546A1
:101B400010E0206828600C48C7F80080AFF30080E0
:101B5000D4E9010188470848AFF30080396841455E
:101B600000D04D462C68002CE5D10020386002489A
:101B7000AFF30080BDE8F8831400002010000020BF
:101B80000148FFF77FBB00001400002010B500F0F3
:101B9000A9FCBDE8104000F0A0BC30B503461D789C
:101BA0001DB10A4603E0AC4201D1181A30BD12F84B
:101BB000014B002CF7D15B1CF1E730B503461D78D3
:101BC0003DB10A4612F8014B1CB1AC42FAD15B1C84
:101BD000F5E7181A30BD7546FFF750FBAE46050015
:101BE0006946534620F00700854618B020B5FEF739
:101BF000C5FBBDE820404FF000064FF000074FF056
:101C000000084FF0000BAC46ACE8C009ACE8C009D6
:101C1000ACE8C009ACE8C00921F007018D46704767
:101C2000034640688C46002818BF88423CBF0346E4
:101C30004068F8D318681844884207D00CF10300B4
:101C400020F00700001D411A521A0146081D0A60C3
:101C5000FEF7AFBF10B50446FEF770FF0068005DE9
:101C600000F0010010BD00002DE9F04F04460D46C4
:101C7000D21D22F0070089B0D0E9009748463946C6
:101C800027F02FFE0246F80F01D02D2307E0206831
:101C9000810701D52B2302E0202101EAC0038DF842
:101CA00020300BB1012000E00020032A824601D041
:101CB000072A04DB29462046FFF7EAFB3FE12078AC
:101CC000800601D40D2500E0E569C7F30A560D2D05
:101CD00049DA00214FEA175B08462AF06DFD002F14
:101CE00000F4400007DA00EB80004FF4400100EB05
:101CF000D07001EA60008115012901DD4FF0FF314C
:101D000000224FEA850CBCF1180F06D31346ACF144
:101D100018004FF08052C24003E04FF4801323FAC2
:101D20000CF30CF10C0CBCF1200F04D3ACF1200C23
:101D300009FA0CF001E007FA0CF000294FF0004816
:101D400001DD18B90FE00ED140450CD319EB0209A3
:101D50005F4121B9404502D19F4329EA0209BBEB0B
:101D6000175F00D0761C2088000502D57B48784498
:101D700002E07A487844193808AA302302F80A3079
:101D8000037C0AF10101002E0AF1020A53546A464B
:101D900002DC4FF0300101E04FF031014FF001085B
:101DA0008DF8001002D0A6F2FF3603E059EA470191
:101DB00000D06B4E002D02DC2178090704D54FF0CE
:101DC00002082E218DF80110C44600210BE0C7F354
:101DD00003433F01C35C491C6D1E02F8083005290E
:101DE00008F1010801DA002DF1DC00210CE000EB24
:101DF0001973491C1B786D1E082902F808304FEA38
:101E0000091908F1010801DA002DF0DC21688B06C0
:101E100002D516E0A8F10108E04505DD02EB080354
:101E200013F8013C302BF5D0B8F1000F09DD02EBBF
:101E3000080313F8013C2E2B03D1090701D4A8F1A4
:101E40000108002D05DD3E2102F808106D1E08F185
:101E50000108407C002E02F8080008F1010804DAAD
:101E60002D20764202F8080002E02B2002F808003C
:101E70000A214FF47A70864208F101080BDB96FBC9
:101E8000F0F3303302F8083096FBF0F308F1010864
:101E900000FB136601E0642E0CDB642096FBF0F37C
:101EA000303302F8083096FBF0F308F1010800FB2C
:101EB000136601E00A2E06DB96FBF1F0303002F8E3
:101EC000080008F1010896FBF1F001FB10603030CA
:101ED00002F80800A16908F1010808EB050202EB0D
:101EE0000A00081AA0612078C00602D42046FFF735
:101EF00081FA216A08AE01EB0A00206204E0D4E90D
:101F0000012116F8010B9047BAF1010AF7D22078A7
:101F1000C00602D52046FFF76DFA6E4609E016F8B6
:101F2000010B3E280FD0D4E901219047206A401CC4
:101F30002062B8F10108F2D22046FFF771FA09B029
:101F40000320BDE8F08F206A2844206203E0D4E932
:101F50000121302090476D1EEBD3F8E731AD020030
:101F600002FCFFFF10B5436913B1AFF3008001E03D
:101F7000FFF7E0FA012010BD128800F124018284ED
:101F80000022C2840122EDE711684FF0FF32E9E739
:101F9000426842B1016811F8013B23B1521EC0E909
:101FA0000012184670470121C160881E70474268C0
:101FB0005AB1C368016843B983688B4205D0491E92
:101FC000521CC0E90012002070474FF0FF307047EC
:101FD000810B43F26D425143490B01EB107101EB50
:101FE000507070472DE9FF5F804600252F46DDF8D1
:101FF00038A02CE001990020044631F817B021E008
:10200000544503D2039931F8141000E000210BFB72
:102010000100B0B13E19002102E028F815106D1C36
:10202000B542FAD938F81610014489460846FFF738
:10203000CFFF6FF41C7100FB01F209EB021128F8CD
:102040001610641C5445DBD30028D9D17F1C02989C
:102050008742CFD3284604B0BDE8F09F2DE9FF4F5B
:1020600087B003AC01230025159EADF8182084E845
:102070000B000A9B0121DBB1B3FA83F0C0F11F070B
:1020800083EA53000DF10C0B80EA900080EA1010F7
:1020900080EA102080EA104000F00100784021EA38
:1020A00000045BF82400028001A840F8241072E0CC
:1020B0000180169808B10021016001200BB0BDE835
:1020C000F08F0DF1040858F8242000925BF82410DA
:1020D000C4F101045BF824000B46FFF783FF48F8C6
:1020E00024000A996D000120B84008420ED00598DE
:1020F00006AB009058F824205BF82410C4F10104CA
:102100005BF82400FFF76EFF48F82400149890B3A2
:1021100058F82400B0423ED9811B1498002827DDCE
:102120004FF0000948464A465BF82430DFF8C0E12A
:1021300016E033F812C01CEB000010D041F6372C2B
:10214000824600FB0CF040F2712C0EEBC000400FF9
:1021500000FB0CF8BAEB081F01D04FF00109521C2C
:102160008A42E6D333F811C04844604423F8110092
:102170005B46002009E00EE053F8242000EB010C40
:1021800032F81CC022F810C0401CB042F4D301A8A1
:102190000D4440F824607F1E93D5169800B1056069
:1021A00001A850F8240089E72DE9F04389468446C8
:1021B00000210A460B461DE04B4502D23CF8134075
:1021C00021444FF00A0800252C46B1FBF8F697078A
:1021D00008FB16163F0FB1FBF8F106FA07F72F437D
:1021E000521CBDB206B11046641C042CEDD32CF871
:1021F00013505B1C4B45DFD30029DDD1BDE8F083D4
:102200002DE9FF4F824689B00526DDF860B035E044
:10221000042E0DDA22464FF40050ADF804000120E0
:10222000009001AB03A906A8FFF7DCFE074600E01B
:10223000002706EB860000EBC602DDE9160100F080
:102240007EF900240DF118080DF10C09C0F30C05FE
:1022500010E0BC4202D238F8140005442846FFF7CB
:10226000B7FE6FF41C71414305EB0111054629F8D7
:102270001410641CBC42ECD3002DEAD1301EA6F130
:102280000106C5DC0025BBF1000128460AF5BD7634
:1022900009DD0B4651460222009001900290304623
:1022A000FFF7DCFE0FE00BDA51460522CBF100030D
:1022B0000090019002903046FFF7D0FE5D4602E0AC
:1022C0000120AAF87A013346224603A9009050461D
:1022D000FFF788FE0B9A01465046C2F800A0FFF7B0
:1022E00063FF0A996D1E086028440DB0E7E6000000
:1022F00000F0FFFF007B00F08000704770B5C468FD
:10230000A50713D0650211D4B2F5807F09D0B2F5CC
:10231000007F06D0B2F5806F08D1012300F12401BF
:1023200006E05D1E6FF07F46B54201D3012070BD0F
:102330000161C361416024F470611143C1600020F8
:1023400070BD00002DE9F0410C461646070047D04D
:10235000104600F06FF82078611C61280AD07228BE
:1023600002D077283CD102E00125002405E00225B7
:10237000042402E0082448F2020511F8010B2B287E
:1023800006D0622809D011F8010C74280AD00BE09D
:1023900045F0030544F00204EFE745F0040544F07E
:1023A0000104EAE744F010043846214625F0A8FB72
:1023B000411C15D00021316171604FF40071F5604E
:1023C000F1617061200704D530460222002100F03F
:1023D000F5FB306D40F0010030653046BDE8F0811E
:1023E0000020FBE72DE9F0410D460646104C206D1C
:1023F000C10704D0410804D020F00104F7E72246C9
:102400000EE05420FEF7A6FB07000ED0206D47F02B
:1024100001010843542120653846FEF70CFB3A467B
:1024200029463046BDE8F0418CE70020D6E70000A1
:10243000E80700202DE9F04704464FF0FF3800265A
:10244000C568D4E90497A80718D0204600F072FCAC
:10245000384625F04BFB002800DA4646280502D511
:102460004846FEF7A6FB4C212046FEF7E4FA206D15
:1024700020F0010020653046BDE8F0874046FBE7CC
:102480002DE9F04116460C460546FEF757FB03685A
:1024900093F80101012807D0FF2C12D8185D80B1F4
:1024A00001202C70BDE8F081D3F8070132462146A7
:1024B00003F20713C7182846BC46BDE8F0410023C5
:1024C00060474FF0FF30EDE710B50446AFF30080F2
:1024D0002046BDE81040FDF73DBF002801D025F0A3
:1024E00007BB704710B5002102A000F067FC012077
:1024F00010BD0000534947414252543A2041626E98
:102500006F726D616C207465726D696E6174696F54
:102510006E00000010B500F06BFCBDE81040FFF746
:10252000DCBF10B500F0BAFCBDE81040FFF7D5BF26
:1025300010B500F0CDFCBDE81040FFF7CEBFB2F102
:1025400020030AD5C2F1200320FA02F001FA03F3B6
:1025500040EA030021FA02F1704721FA03F04FF03C
:10256000000170472DE9F04780461D46164688B0A9
:102570000878DDF84090FF2805D0491C2D2804D0AC
:102580000022002408E000240BE00122F9E704EB1C
:102590008403491C00EB43040878FF28F7D102B1FB
:1025A00064423046FEF73CF928442044A0F1020A78
:1025B000307800242D2801D02B2803D1761C2D281B
:1025C0000AD00024002108462AF0F6F810F4400F43
:1025D00004D02CB1400204E00124F3E7002505E01B
:1025E0000002002801DA022500E00125B9F1000F00
:1025F00007A906AA04AB0DD040F2CB37F348CDE9CA
:1026000002212A465146CDE900033046342300F02A
:102610009BFC17E06FF09400CDE900033046CDE954
:1026200002212A465146172300F08EFCDDE9040101
:10263000490741EAD0014007CDE9040106981D3859
:102640004B2706904FF0020A06980026B8421DDD7F
:10265000FEF77CFAC0F800A0142108462AF0ACF876
:10266000022D06D04FF47370069000204FF48011B5
:1026700009E0B9F1000F069702D04FF0FF3001E0FA
:102680004FF06040D249CDE904012EE0079AD0070F
:102690000FD11025900708D5DDE90401182508435E
:1026A00003D1FEF753FAC0F800A0294608462AF0E5
:1026B00083F8DDE9040150EA010228D0021E71F519
:1026C000801212D2B9F1000F0FD150EA01021ED0D0
:1026D000420D42EAC122B2FA82F52A4600F020FCFD
:1026E000CDE904010698401B069040F2324106985D
:1026F000000500EB0152DDE904107118424189190F
:1027000042EBC472C8E9001208B0BDE8F087E107E7
:10271000C8E90061F8E72DE9FF4F1F464FF0000AB6
:102720004FF0FF384546ADF5497DD7E90146CDF874
:1027300004A3FEF7ADFDC0680168405CC790B969AD
:10274000CA986D1C8847396A814688470028F6D1A7
:10275000B9F1FF3F0AD0002E24F4D06413DDB9F1A3
:102760002B0F0AD0B9F12D0F0DD104E040460DF525
:102770004D7DBDE8F08F44F48064B969CA986D1C42
:102780008847761E8146600504A901D52D2000E00A
:102790002B20002E01F1010B0DF544788DF810006F
:1027A0003FDDB9F1690F08D0B9F1490F05D0B9F192
:1027B0006E0F02D0B9F14E0F1CD13B4601A8009517
:1027C00080E85002DDE9CA126FF002002AF0EEF84C
:1027D000C11CCCD10EE0B969CA986D1C88478146EE
:1027E000CB98761E44F400740560C198401C002EFE
:1027F000C19016DDB9F1300FEDD0B9F1780F02D0EC
:10280000B9F1580F0DD1C19801280AD13B46029663
:10281000CDE90054DDE9CA12001F2AF0C5F8C11C39
:10282000A5D1C799894544D144F0800406E0CB99ED
:10283000681CAAF1010A44F400740860B9696D1CAF
:10284000CA98761E884730288146F0D031E0C79973
:10285000894505D1200603D4761E44F080041EE08D
:10286000484628F0E5F838B3761E0BF101010DF269
:1028700003329142A9F1300044F4007407D23030A1
:102880000BF8010B20060AD5AAF1010006E0392158
:1028900020060BF8011C02D40AF101008246A005B3
:1028A00002D5CB99681C0860B969CA986D1C884725
:1028B0008146002ECBDC53E0002E51DDB9F1650FCF
:1028C00002D0B9F1450F4BD1A00549D5B9696D1CAE
:1028D000CA98761E24F440748847002E81460CDD89
:1028E0002B2804D0B9F12D0F07D144F48074B969B5
:1028F000CA986D1C8847761E8146E00501D52D21BA
:1029000000E02B2108F8011BCDF8008021E0761EA5
:102910000DF21931884544F400740CD2A9F130004D
:1029200010F0FF0088F8000002D10099884509D90D
:1029300008F1010806E0E00501D5264801E042F271
:102940000F708246B969CA986D1C88478146CB983A
:102950000560002E04DD484628F06AF80028D6D12C
:10296000F969CA988847FF21534688F8001000206B
:102970008BF80000C290C39004F02400009004AAD9
:10298000C4A9C2A8FFF7EEFDA00502D46FF00100B4
:10299000EDE614F0240F0AD0E00714D13868DDE921
:1029A000C212031D3B600068C0E900120BE0C2A91F
:1029B000684627F07FFFE00705D13868009A011DBF
:1029C0003960006802602846D1E60000CEFBFFFFB8
:1029D000FFFF1F00F1D8FFFF2DE9F05F0546174606
:1029E0000C46C86820F4201040F48000C8608006BF
:1029F00002D5084600F0C1F9E06841F282014FF0CB
:102A0000FF3A0140022903D0204600F053F9B9E013
:102A100000F42041B1F5004F0FD1C00306D5616825
:102A2000E06A884200D80846606006E02069E062FB
:102A30006060606925F05EF8A061A0680022EEB2D7
:102A400000280DDAE1688B050AD4C043A06041F488
:102A500090302260E0606068411C61600670AAE00E
:102A6000E0689146226040F40050E060206978BB45
:102A7000606925F043F804F124054FF00108A8B17E
:102A8000A08910F4407F08D0E069FEF763F8206168
:102A900018B1E06840F4006017E0C4F81C802561BC
:102AA000E06820F4407040F480600EE0E069FEF7DA
:102AB00051F800282061F0D0E06840F4006010F484
:102AC000407FE06002D140F48070E0602069606087
:102AD000E06825696FF0010BC1051ED56168E06AE9
:102AE000884200D80846411B04D02246284600F000
:102AF000EBF8E8BB1FB1E562C4E9015959E0681C75
:102B0000E0626060E069401EA060E06840F48030F0
:102B1000E06030462E70BDE8F09F17B100F48032BF
:102B20000AE06068411C61600670E0680A2E40F4AB
:102B30008030E06006D00022E16A6068814203D9FB
:102B40000B4602E00122F7E70346B4F80CC05B1B1A
:102B50005FEA4C5C04D4D4F81CC09C4500DD02B391
:102B6000814200D80146002BA1EB0008E56200E09D
:102B700008E0C4E9015907DD22461946284600F05D
:102B8000A3F808B15046C6E7B8F1000F09D0A16913
:102B9000E5626560A1EB0800A061E06840F010000C
:102BA000E06047B16168A069E562491B084465605F
:102BB000A0615846AFE73046ADE700002DE9F0418F
:102BC000044616460D464769007B80072ED03846DE
:102BD00024F094FF50BB3EB3012E02D0022E25D12B
:102BE00004E0204600F0A2FB05441DE0384624F036
:102BF00081FFE168002841F01001E16005DA20461C
:102C000000F058F80120BDE8F081C9030BD56268D7
:102C1000E16A914200D81146A26911442269891AD9
:102C2000814200DD08460544002D01DA0220EAE772
:102C3000E16A6068E268814206D29103E06203D5EE
:102C400022F4003141F01002A6690027AE4213DCE5
:102C5000E16A814201D90B4600E0034603EB060C12
:102C60002369ACEB030CAC4506DD814201D98C46EF
:102C700000E084469C4505D1A760276042F0200013
:102C8000A5620DE0AD1BE669AE1B8142A66000D9CE
:102C90000846C01A281A20605819606022F02000E7
:102CA00003490840E060002084F84870ABE700006A
:102CB000BFCFD7FFC16821F4001141F08001C1608E
:102CC00000218160016070472DE9F74F15460C46E1
:102CD0004FF0FF3B3848D768D2F814A0074209D01C
:102CE0005046A96924F00EFF002819DB3248C04382
:102CF0000740EF604FF000496FF000484C4501D3AA
:102D0000464600E0264600993B465046324624F0AF
:102D1000FDFEA96920F00042B21A1144A96128B150
:102D20002846FFF7C7FF5846BDE8FE8FA41BE5D134
:102D30000020F9E770B504460569C06A61688842F9
:102D400000D80846E16821F42011E160C90312D5DA
:102D5000A84208D02246411B2846FFF7B5FF10B114
:102D60004FF0FF3070BD0020E562C4E90150E0681B
:102D700020F48030E060002070BD10B50446C068CB
:102D800020F02000E060A16AA06988420DD02046B2
:102D9000FFF7D0FFE06820F4405040F01000E06002
:102DA000A06AA0612069E062606044F24001E068CE
:102DB0008843E06010BD00001000020070B50546B9
:102DC0000C460A2000E06D1C24F0A2FE35B12878E4
:102DD0000028F8D102E0641C24F09AFE14B1207897
:102DE0000028F8D1BDE870400A2024F091BE000010
:102DF00010B5022803D0410103D50DA112E0002037
:102E000010BD010101D50FA10CE0C10001D511A138
:102E100008E0810001D512A104E0400001D513A112
:102E200000E0002115A0FFF7C9FF012010BD000040
:102E3000496E76616C6964204F7065726174696F68
:102E40006E000000446976696465204279205A6505
:102E5000726F00004F766572666C6F77000000003D
:102E6000556E646572666C6F77000000496E657818
:102E700061637420526573756C7400005349474652
:102E800050453A2041726974686D657469632065C4
:102E90007863657074696F6E3A20000010B5014662
:102EA00002A0FFF78BFF012010BD000053494752DD
:102EB000545245443A2052656469726563743A20FD
:102EC00063616E2774206F70656E3A200000000009
:102ED00010B5012805D0002103A0FFF76FFF0120E6
:102EE00010BD09A1F8E7000053494752544D454D24
:102EF0003A204F7574206F662068656170206D659B
:102F00006D6F7279000000003A2048656170206D95
:102F1000656D6F727920636F72727570746564008D
:102F2000B2F120030AD5C2F1200301FA02F120FA1E
:102F300003F341EA030100FA02F0704700FA03F1DB
:102F40004FF00000704700002DE9FF4F8346ADF5BC
:102F50004B7D04E0CC980BF1010B401ECC909BF80C
:102F600000003028F6D09BF80000012358B1CC981F
:102F700000F5A270B0F51E7F30D9CC98002810DD86
:102F80004FF480300EE0D9984FF00001C0E90011F5
:102F90000846DA990860DB9803600DF54F7DBDE8BF
:102FA000F08FD898DA99086007DD4FF001004FF0F4
:102FB0000001CE9AFFF7B4FF04E0CD98012800D0BD
:102FC0000020C117D99AC2E90001CC98002801DD80
:102FD000002000E00220DB990860DEE705200522E2
:102FE000C4AD1D9058461AE0002125F81210037850
:102FF0000BB1401C303B35F812608C0701D5012421
:1030000000E064245C43CB0701D0012300E00A23E5
:10301000491C04FB0363042925F81230E7D3521E30
:10302000E2D200E0401C01783029FBD011F0FF0013
:1030300000D00120BA4ACC9911909BF8000051436E
:10304000B84A7A44303802EB800050F8040C084447
:10305000B54900F1004001EB1040CE99451AD898CF
:10306000854200DA0546CC988A1C0021C0F1130085
:103070001C900120FFF754FFCDE9C710A81E0028BF
:1030800002DA4FF0020101E04FF00501199102DA76
:103090004FF0FF3101E04FF001014FF000044FF01D
:1030A000FF3901FB00F11B9114B14FF0010000E06A
:1030B00048464FF006021AA9CDE9000202911B9B77
:1030C000199A12A90AA8FEF7C9FF02462CB1BDF849
:1030D000101311980844ADF810031D98C4AB0AA949
:1030E000009003A8FEF77EFF01462CB1BDF8102327
:1030F0001198101AADF8100319981C9A052801D1DF
:103100001B9802441A98404202EB800603A8FFF77E
:103110004BF8761E401EB246504501DD014600E0E8
:1031200031460022134620E081420EDC49450CDD89
:10313000CE1701EB9676B71003AE36F817608F07FF
:103140003F0FFE4006F00F0600E000264FF0000C97
:10315000B6460A26491EA2FB067803FB068302FB3D
:103160000C3317EB0E0243EBEE735145DCDC1A9F78
:10317000119E3E4301D0012700E00027BFB11BE0B4
:10318000814210DC49450EDDCE174FEA817801EB14
:1031900096764FEA1878B6103CF8166026FA08F6CC
:1031A00006F00F0600E00026491E16B104E00DF1FE
:1031B0000C0C4945E4DC0FB142F00102C0A800EB61
:1031C000C400C0E900230CB9D0070FD0641C022C46
:1031D000FFF46AAFDDE9C702DDE9C0319A1A814127
:1031E00009D2D898854225D06D1E47E7DDE9C00198
:1031F000CDE9C201EEE7CE9A01200021D21CFFF7F3
:103200008FFE421CDDE9C20341F10001121A99410F
:1032100010D2CE9A01200021121D6D1CFFF780FEF6
:10322000DDE9C223401C41F10001801A9941DCD242
:103230006D1C23E7C0ACC39A94E80B005140584082
:1032400008433AD04FF0FF38DDE9C001401C20F0C0
:10325000010641F10004A81E0096CDE90140CAAA6A
:10326000C9A903A8FEF7CCFFCC99814208D002DDA2
:103270004FF0010000E04046861944EBE0741AE08C
:10328000584615E0C999401C61B1491ECA9F8B0878
:10329000C99137F813308907090FCB4003F00F01AC
:1032A000303100E030218A4202D08A42E3D9DFE7A0
:1032B0000278002AE6D1CDE9C064DDE9C043D89E9A
:1032C000A00800229908B54240EA837005D1DDE9E3
:1032D000C767E41BB34100D20222C09B13F0030373
:1032E00004D0CD9C2CB1012C0ED010E042F0010294
:1032F0000DE0022B02D0032B06D008E000F0010401
:10330000201841F1000102E0401C41F10001D99B6D
:10331000C3E90001DA980560DB9802603DE6000031
:1033200069520300729A02000080FFFF10B5014647
:10333000C268900703D0900607D5886A0AE0FDF7B7
:1033400005FC01210160881E10BD8B694868184486
:103350000B69C01A91F848301BB191F84910401A16
:1033600010BD1103FCD50028FADD401E10BD000081
:103370002DE9FF4F1F464FF03C0987B04FF0004248
:10338000DDE9141001F10108DDF858A002EA40500F
:103390000390002005908346054604460490B969D1
:1033A000461E08988847AAF1010A0290BAF1000F58
:1033B0003BDD02982E2815D01021FEF7D9F9002800
:1033C0002EDB4FF0010B0599014317D0B9F1000F27
:1033D0000BDB4A46C117FFF7A3FD05430C43A9F1D8
:1033E000040905E0012004900BE008B145F0010557
:1033F00001200590049820B9361D02E0049800B120
:10340000361FB969089808F101088847BBF1000F19
:10341000AAF1010A0290C9D00999C1F80080C5E754
:103420000298702808D0502806D0F9690898884773
:10343000BBF1000F14D04FE0002002900120BBF13F
:10344000000F049009D0B969089808F1010888476D
:10345000AAF10109B9F1000F07DCF969089888475A
:103460006FF001000BB0BDE8F08F2B2804D02D28A1
:103470000CD14FF0FF300490B969089808F10108A9
:103480008847A9F10109B9F1000FE6DD411CE4D03C
:103490000A21FEF76DF90028DFDB029908F1010827
:1034A00001EB810100EB41000290B969089888475F
:1034B0000A21FEF75DF9099AA9F10109B9F1000F96
:1034C000C2F8008001DD0028E7DAF969089888472A
:1034D0000499029800FB016655EA040004D004F048
:1034E0004041090002D006E0039898E0A40044EAB5
:1034F0009574AD00B61E04F00041080002D16D19AC
:103500006441761E159810F0240F03D04FF00B097C
:103510005C4803E04FF028096FF07D008246564575
:1035200007DAAAEB06018944B9F1410F01DD4FF03A
:10353000410901200021A9F10102FFF7F1FC024637
:1035400028400B462140084301D0012100E0002122
:10355000501E029143F1FF3128402140084301D021
:10356000012000E000200299834651EA0B014FD070
:103570000021084629F020F9039900F4400039B1F0
:1035800000EB80004FF4400100EBD07001EA6000D6
:103590008015012802DD4FF0FF3000E013D0401C01
:1035A00036D0029860B3BBF1000F0CD14A4601201F
:1035B0000021FFF7B5FC28402140084301D001203D
:1035C00000E00020E0B101204A460021FFF7A8FCFE
:1035D000034640190A4661412D1A8C4111D3B9F1B5
:1035E000400F09DD159810F0240F02D0AAF134061F
:1035F00003E0AAF1170600E0761C00254FF0004416
:1036000006E05B1E42F1FF3220EA030521EA0204D4
:10361000CAF10100B04206DA1B4903980843019041
:10362000002000900EE0039AC4F3D321E80A0A4375
:10363000164940EA44500A433146CDE90002684643
:1036400027F0ECF9159810F0240F0BD01598C0074F
:1036500015D13868DDE90012031D3B600068C0E940
:1036600000120CE002A8694627F024F91598C0075B
:1036700005D13868029A011D396000680260404631
:10368000F0E6000002FCFFFF0000F07F0000F03FCA
:103690002DE9FF4F92461D4685B04FF00041DDE910
:1036A000124BDDE914727F1E01EA4B50414940F094
:1036B000FF4940EA0108002122F020004928049136
:1036C00002D04E2828D04CE03BA0012607C88DE848
:1036D0000700A9690698641C88477F1E014606D426
:1036E0001DF8060018B121F0200181420BD0E969D4
:1036F00006988847032E34D0082E32D06FF0010090
:1037000009B0BDE8F08F761C032E01D0082EE0D161
:10371000601CCAF80000DCE7A9690698641C8847A9
:103720007F1E2AD420F02000412826D1A9690698BE
:10373000641C88477F1E20D420F020004E281CD116
:10374000A9690698641C88477F1E48F4002849F43C
:103750008009CAF8004001D4282806D0E9690698F3
:1037600088475FEACB7012D022E0A9690698641CF2
:1037700088477F1E01D4002803DAE9690698884744
:10378000BCE72928F1D1641CCAF80040E9E71BF026
:10379000240F07D028680499031D2B600068C0E936
:1037A000001805E02868021D2A600068C0F8009033
:1037B0002046A5E70000F07F494E46494E4954593E
:1037C00000000000FEE700004CF22820C2F20000DA
:1037D00000F008BA4CF25020C2F2000000F002BA29
:1037E000002070470020704710B54BF6BC64C2F251
:1037F000000441F6CC31C2F200012046002208F05C
:103800009FFC41F2CC31C2F20001204608F08AFC54
:10381000002010BD10B54BF6BC64C2F20004014696
:10382000204608F07FFC204608F056FC002010BD22
:10383000002070474CF29830C2F2000000F07ABCD1
:103840004CF23830C2F2000000F074BC4BF6B410F9
:10385000C2F2000021F018BB4CF2F830C2F20000B6
:1038600000F068BC80B506F021FF18B1BDE88040CB
:10387000FFF7ECBF4CF2D820C2F20000BDE8804058
:1038800000F058BC70470000012000F0DDBE0000D1
:10389000082000F0D9BE0000102000F0D5BE0000C6
:1038A000202000F0D1BE00004CF60860C0F60200F7
:1038B000002106F071BE000070B581B000220092B8
:1038C00090F83C20012A02D1022001B070BDD1F84D
:1038D00000E001221FFA8EFC4FEA4C0380F83C20E6
:1038E0000EEB4E0213FA8EF31024BEF1090F88BFBF
:1038F000A3F11E0288BF0C24036807251E599540BA
:1039000026EA05051D518D681E5905FA02F232435B
:103910001A514968062906D801EB81014A1F194648
:1039200051F8345F0EE00C2901EB810105D8A1F1BB
:103930002302194651F8305F04E0A1F14102194613
:1039400051F82C5F1F24944025EA04040C600CFA03
:1039500002F20C6842F2043CC4F2010C2243ACF5C2
:103960004174A3420A603AD1BEF1120F06D1DCF8CD
:10397000001041F48001CCF8001030E02EF001017D
:1039800010292CD1DCF80010BEF1100F41F4000119
:10399000CCF8001023D140F24811C2F200010968AE
:1039A0004DF68362C4F21B32A1FB0212910C01EBB3
:1039B000810149000091009989B100990139009174
:1039C000009961B1009901390091009939B10099CC
:1039D00001390091009911B100990139EAE70021FC
:1039E00080F83C10002001B070BD0000002804BF2A
:1039F0000120704710B5016C39B9044600F0A0F8F9
:103A000020460021616484F83C10016CC9063AD458
:103A1000016C41F202129143023142F2043201641C
:103A2000C4F20102116821F440311160136890E87A
:103A300012102343D0F810E013604A68012422F4E6
:103A400080724A604A68C0F6007442EA0E224A60F8
:103A50004A6822F040724A604A6842EA0C024A60B0
:103A60008A6822F400628A60C2688B681A438A609E
:103A7000826A8B68A24223F070638B608B6804D1EA
:103A800023F040520AE0012152E01A438A608A681A
:103A900022F040528A60C26A8B681A438A608A6840
:103AA00022F002028A608A68037E90F8204042EA8F
:103AB00043028A604A6884B142F400624A604A68FC
:103AC0004EF2000322F460424A60426ACFF6FF736E
:103AD0004C6803EB4232224301E022F400624A6068
:103AE000CA6A40F2000C22F47002CA62C3694269D9
:103AF000CFF6F07CCC6A0CEB03532343CB628B688C
:103B000023F400738B6090F830308C6844EA4323D0
:103B10008B608B6823F480638B608B6843EA82221E
:103B20008A6000214164026C012363F30102026494
:103B3000002280F83C20BDE8104008467047000095
:103B400080B586B0006842F20022C4F20102002172
:103B50009042CDE90411CDE90211019116D042F253
:103B60000001C4F20101884238D10020009043F6E0
:103B70004400C4F20200016841F4807101600068F1
:103B800000F480700090009806B080BD43F64400B9
:103B90000091C4F20200026842F48062026002688E
:103BA00002F480620092009A009150F8142C42F0C6
:103BB000200240F8142C50F8140C00F02000009063
:103BC00000984FF4806001900320CDE9020141F29A
:103BD0000040C4F2020001A900F042FD06B080BD21
:103BE000704700002DE9F04F81B004460068466937
:103BF000D0F804908768D0F80CB0D0F810A0D0F8B6
:103C00001880F10703D1002530071CD423E0F90701
:103C100010D00121BA07816009D4780700F1AA8089
:103C2000380700F1B080204600F01EFA02E020467E
:103C300000F01CFA0025F80500F18480F80300F17B
:103C4000AA80300707D51BF0100004D0206845F487
:103C500000751021C160700708D51BF0080005D061
:103C600020680821C160204600F0F4F9B00706D5AD
:103C70002068C068800702D0204600F0EDF9700689
:103C800007D51AF0100004D0206845F48065102193
:103C90000161B00608D51AF0080005D02068082197
:103CA0000161204600F0DAF9F00606D520680069C7
:103CB000800702D0204600F0D3F9B00308D519F0F0
:103CC000100005D0206810214160204600F0CAF99C
:103CD000F00308D519F0080005D0206808214160DC
:103CE000204600F0CDF9300440F18F805FEA497042
:103CF00040F1888006F4807008EA102028435FEACB
:103D00008871014648BF41F00201B20558BF014623
:103D10005FEA48700D4648BF45F00405700558BF7E
:103D20000D4630056ED518F070006BD010380009C4
:103D3000052862D8DFE800F0035C5659535F45F070
:103D400008055AE020684FF48071BA0581600AD4F2
:103D5000780512D4380519D4204600F089F9F80303
:103D60007FF56FAF17E0204600F084F9F8037FF588
:103D700068AF10E04FF400655DE705F50055F80306
:103D80007FF55FAF07E04FF4805554E705F58045B8
:103D9000F8037FF556AF20684FF48031BA03816095
:103DA0000AD478030FD4380313D4204600F064F902
:103DB00030073FF548AF4EE7204600F05FF9300787
:103DC0003FF541AF47E705F5004530073FF53BAF0D
:103DD00041E705F5803530073FF535AF3BE745F066
:103DE00080050AE045F0200507E045F0400504E0C5
:103DF00045F0100501E045F480752068816921F0E7
:103E0000700181612068042141604DB1606A40EA1F
:103E100005012046616201B0BDE8F04FFFF7E0BE4A
:103E200001B0BDE8F08F0000002804BF01207047FA
:103E3000B0B5044690F8200010B9204600F06EF8A6
:103E40002068016841F00101016000F0DFFC0546D7
:103E500020684168C90705D100F0D8FC401B0B2839
:103E6000F6D310E0016821F00201016000F0CEFC01
:103E7000054600BF2068416889070DD500F0C6FCE3
:103E8000401B0B28F6D3606A052140F400306062C5
:103E9000012084F82010B0BD217E0268012922F0A3
:103EA000800208BF80320260617E0268012922F030
:103EB000400208BF40320260A17E0268012922F060
:103EC000200208BF20320260E17E0268012922F050
:103ED000100218BF10320260217F0268012922F00F
:103EE000080208BF08320260617F0268012922F0DF
:103EF000040208BF04320260D4E901C2D4E90335E8
:103F000061691A432A431143ACF101021143C161B3
:103F100000200121606284F82010B0BD10B586B089
:103F2000006846F60002C4F2000200219042CDE98A
:103F30000411CDE90211019141D046F20041C4F2D1
:103F40000001884240F0838040F6DC11C2F200019B
:103F50000A6843F64000C4F20200531C0B6052B9D9
:103F600000210091016841F000710160016801F0D9
:103F70000071009100990021009150F8102C42F03E
:103F8000080240F8102C50F8100C022200F0080033
:103F9000009000980320019004900920059040F2C1
:103FA0000040C4F20200CDE9022100F5006001A941
:103FB00000F056FB142000210022142442E043F6B6
:103FC0004000C4F202000091016841F0806101608C
:103FD000016801F080610091009940F6DC11C2F2A5
:103FE00000010A68531C0B6052B90021009101685E
:103FF00041F000710160016801F0007100910099C9
:104000000021009150F8102C42F0020240F8102CD0
:1040100050F8100C00F00200009000986020019011
:104020000220CDE90201032004900920059040F20E
:104030000040C4F2020001A900F012FB402001215F
:104040000022402401F0A0FF204601F08BFF06B0C3
:1040500010BD00007047000070470000704700006E
:104060007047000070470000704700007047000074
:104070007047000070470000704700007047000064
:104080007047000070B5866D044600F0BFFB94F8E1
:104090003510022925D105462068216C026822F0DE
:1040A00016020260426922F08002426109B9A16CE5
:1040B00019B1016821F008010160016821F00101D6
:1040C000016000BF20680068C0070ED000F09EFBB2
:1040D000401B0628F6D320206065032084F83500B5
:1040E0000CE080206065012008E0E06D3F2101FACE
:1040F00000F0B060012084F835000020002184F831
:10410000341070BD90F83510022909D1052180F8CE
:1041100035100068016821F001010160002070473E
:104120008021416501207047406D704790F835004F
:1041300070470000F0B581B00021009140F24811B5
:10414000C2F200010B68D0E9166148F2B515376874
:104150000822C1F64E358A403A42A3FB05350CD001
:1041600003681C68640708D51C6824F004041C60FC
:10417000B260426D42F00102426501228A403A4239
:1041800008D003685B691B0604D5B260426D42F03B
:104190000202426504228A403A4208D003681B6842
:1041A0009B0704D5B260426D42F0040242651022C2
:1041B0008A403A4216D001680B681B0712D5B260DC
:1041C0000B680A685B0306D4D20506D40A6822F09D
:1041D00008020A6001E0110340D4016C11B10446E9
:1041E00088472046C26D202101FA02F33B4242D0AB
:1041F00001680F68FF063ED5B36090F835700B6814
:10420000052F1BD123F016030B604B6923F08003AD
:104210004B61036C0BB9836C1BB10B6823F0080373
:104220000B603F219140B160012180F83510016D94
:104230000022002980F8342053D156E00A685B033D
:1042400010D4D20512D40A6822F010020A600121AB
:1042500080F83510002180F8341007E0816C0029C7
:10426000BDD1BFE7110301D4416C00E0C16B11B1B6
:10427000044688472046416DB9B3416DC9072ED029
:10428000052180F835100168AA0A0B6823F00103A4
:104290000B60009B0133934200931AD80B68DB0735
:1042A00017D0009B01339342009312D80B68DB07B1
:1042B0000FD0009B0133934200930AD80B68DB07B1
:1042C00007D0009B01339342009302D80B68DB07B1
:1042D000DFD1012180F83510002180F83410C16C45
:1042E00019B101B0BDE8F040084701B0F0BD0000D1
:1042F0002DE9F041044600F089FAC4B105460220D8
:1043000084F835000020216884F83400086820F023
:104310000100086021680868C0070BD000F076FA39
:10432000401B0528F6D903252023032064E0012043
:10433000BDE8F081086848F23F02CFF21002D4E9EC
:10434000013500EA020C04F10C0898E8C10143EAC7
:104350000C032B431843D4E9072E30433843104352
:10436000626A40EA0E00042A40EA08031CD1206B6E
:10437000D4E90A2E40EA0E00184308604869BEF1ED
:10438000000F20F0030040EA020040F0040C11D0BE
:10439000B8F5005F35D0B8F1000F42D1022A43D002
:1043A000012A38D032B93FE00B60486920F007009D
:1043B00040EA020C01F0F8004AF6AB221038CAF6C7
:1043C000AA22A0FB02231A094CF60063C1F814C00C
:1043D000C0F602039A5C40F2FF335F284FF03F00C3
:1043E00021EA030100FA02F088BF0431C4E9161281
:1043F0008860002301250020636584F83550BDE8FE
:10440000F081032AD6D8012540230120DFE802F0FD
:10441000020C0203F0E7AEF1C070B0FA80F0400980
:1044200004E0032A04D3C5D1CEF300600028C1D034
:10443000012540230120DFE7B0B5EFF305810446F5
:1044400099B925F043F802280FD14FF47A7044F659
:10445000D3516043C1F26201A0FB0101012000EBD6
:104460009110BDE8B04023F0EDBFEFF305800028C8
:1044700000F0A1804CF69050C2F2000000780028B5
:1044800000F09980002C00F0A2802420C4F20000EB
:1044900014F0030221462FD00368611E0568ED1A4F
:1044A000ED087C2D0ED80568ED1AED087C2D09D895
:1044B0000568ED1AED087C2D04D80568ED1AB5F5F0
:1044C0007A7FEBD3012A17D00368A11E0568ED1A85
:1044D000ED087C2D0ED80568ED1AED087C2D09D865
:1044E0000568ED1AED087C2D04D80568ED1AB5F5C0
:1044F0007A7FEBD3022A6BD1042C38BFB0BD00BF4A
:10450000026800BF03689B1ADB087C2B0ED8036887
:104510009B1ADB087C2B09D803689B1ADB087C2BD1
:1045200004D803689B1AB3F57A7FEBD3026800BF07
:1045300003689B1ADB087C2B0ED803689B1ADB08E8
:104540007C2B09D803689B1ADB087C2B04D80368F2
:104550009B1AB3F57A7FEBD3026800BF03689B1AFE
:10456000DB087C2B0ED803689B1ADB087C2B09D850
:1045700003689B1ADB087C2B04D803689B1AB3F5ED
:104580007A7FEBD30268043903689B1ADB087C2B23
:104590000ED803689B1ADB087C2B09D803689B1A8A
:1045A000DB087C2B04D803689B1AB3F57A7FEBD326
:1045B0000029A5D10BE000F029F90546013428BFF8
:1045C0004FF0FF3400F022F9401BA042FAD3B0BDF7
:1045D0000268E11E03689B1ADB087C2B3FF68CAF58
:1045E00003689B1ADB087C2B3FF686AF03689B1A97
:1045F000DB087C2B3FF680AF03689B1AB3F57A7F0C
:10460000E8D379E710B54AF2B801C2F200010968AF
:1046100079B1044606F0D2FA082C01460FD0202CBE
:1046200008D0102C18BF10BD0120BDE8104017F0B5
:104630007BBB10BD0020BDE8104017F075BB022009
:10464000BDE8104017F070BB43F61441C4F20101FD
:104650000A68024214BF08607047FFF7D3BF00002A
:104660002DE9F04F83B000F1200200F13E4741F602
:104670000045009207F1FF77C4F2020508224FEAD5
:10468000B726A84208BF072200254FF000084FF0C8
:104690000009072E38BF4FEAB72201920AE000BF97
:1046A00009F1010908F10208B9F1100F05F104053B
:1046B00000F0A2800F68012202FA09FE17EA0E0A32
:1046C000EED0D1F804C003220CF003077E1E02FADC
:1046D00008F4012E6FEA040B12D88468CE6804EA4D
:1046E0000B0406FA08F634438460446824EA0E0694
:1046F000CCF3001404FA09F42643466004E000BF3A
:10470000032F01D103271EE0C6688C6806EA0B065A
:1047100004FA08F42643022FC66014D16FF0030296
:10472000009E02EA590756F807C005F01C040F2244
:104730000B69A2402CEA0202A3401A43F251D1F8BD
:1047400004C00CF00307026807FA08F302EA0B0240
:104750001A431CF4403F0260A2D0002243F64403F7
:104760000292C4F202031A6843F6004442F4804203
:104770001A601A68C4F2010402F480420292029A9A
:1047800029F003024FF6084C2244CFF6FF7C52F882
:104790000C3005F00C070F26BE40B343019E06FA0D
:1047A00007F73B4342F80C30A2684B6842EA0A071D
:1047B00043F60C4CDE0258BF22EA0A07A760C4F297
:1047C000010CDCF800209E0242EA0A0758BF22EAE8
:1047D0000A07CCF8007062689E0342EA0A0758BFD5
:1047E00022EA0A0767602268DB0342EA0A0758BF29
:1047F00022EA0A07276053E703B0BDE8F08F000004
:10480000002A08BF09048161704700004CF6286047
:10481000C2F2000000687047704700007047000057
:10482000F0B581B00446006800254769426894F8F5
:104830003E1002F48076FA0505D5002E1EBF6FF4F7
:10484000807242610125BA0505D5002E1EBF0235D2
:104850006FF4007242617A0516D5AEB1628D94F89C
:104860003D30D4F830C0202908BF002A22D06FF490
:104870008062402905F10405426101D0102903D16D
:10488000016841F400710160380506D52EB1206839
:1048900008356FF40061416100E04DB1206C40EAE1
:1048A00005012046216401B0BDE8F04004F022BFBC
:1048B00001B0F0BD03F0F701212909D0282B08BF72
:1048C000BCF1210F04D06FF4806141610435DBE756
:1048D00094F83D10E26AB2F1080318BF0123203AB0
:1048E00018BF0122134208BF28291CD0212934D126
:1048F0000021CFF6FF71E16221212163202184F89C
:104900003D10002184F83E10416821F4E0614160CF
:104910006FF480614161016821F48061016020468B
:1049200001F050FAB0E70021CFF6FF71E162416873
:1049300021F4E06141606FF480614161016821F41C
:104940008061016000202021206384F83D1084F8FC
:104950003E00204600F094FB96E76FF480614161D1
:1049600092E70000F0B581B007687968C26A90F8F4
:104970003E5090F83DE0402D01D0102D33D1BB6961
:104980007C69E60717D1B2F12A4F00F04C82B2F5EC
:104990002A0F00F04882220701F4007240F10081E2
:1049A000002A00F0FD80416B426C0029D2B23A61CE
:1049B00040F0AC80ACE08A0542D44FF0010C7A683C
:1049C0005B076DD4120500F12E8204F04402402AE8
:1049D00040F04B8111F4806100F0478101B0BDE8E7
:1049E000F04004F0ADBF026C01F40073002A0CBF6C
:1049F000BC6900247D69AA0728D53BB3016C002956
:104A000018BFBC6990F83D1001F02801282940F03A
:104A1000BC807968012221F48061796004F004018E
:104A200082EA910122064FF0180258BF0C22825AE6
:104A3000002380F83C3001B0BDE8F040FFF7EEBE47
:104A4000C16AB1F52A0F3CD101213FE0EA066DD5DC
:104A5000002B6BD090F83D50796821F4E0617960CB
:104A60000021009179690091396841F001013960B4
:104A70000099396821F4806139607968090540F14D
:104A80006C8105F0F7010446222940F03C8154F87E
:104A9000381F0A68526824F80E2C34F80E2C3AE1BC
:104AA000120500F1C08104F08402802A40F0EC80FD
:104AB00011F4806100F0E88001B0BDE8F04005F03D
:104AC00015B8C16AB1F12A4F01D10821C16290F82D
:104AD0003E1040290AD1016D406C002900F0FE0013
:104AE00018BF40F00100386101B0F0BD0169B1F5B7
:104AF000804F40F0858090F83D10426C212902F0F3
:104B0000FE0218BF01323A61416B09B1C96B39B974
:104B1000806B002800F08781C06B002800F0838143
:104B2000786840F40060786001B0F0BD0EF0F702E4
:104B3000212A73D105F08402802A40F0B88011F454
:104B4000806100F0B48090F83D10428D002A00F0A2
:104B50006A81426A12F8013B3B614262428D013A2E
:104B60004285428D002A08BF292940F05C8179687E
:104B700021F48061796021210163282180F83D10B2
:104B800001B0BDE8F04001F01DB9002100917A6943
:104B90000092BA690092009A80F83C1001B0F0BD12
:104BA0004FF0010CA6078CEA522C7FF508AF002AC3
:104BB0003FF405AF90F83E20C16A036B90F83D606A
:104BC000222E40F09780066D002E08BF402A00F08C
:104BD0009180026D002A40F028810269B2F5404FB1
:104BE00040F023810021009179690091B969009119
:104BF0000099396841F480713960016D013186E1B5
:104C0000016D002900F0F180016D012940F00B8158
:104C1000406C062101EAD010F13064E705F044024F
:104C2000402A53D111F4806150D090F83D10428D4C
:104C3000002A00F0F8803A69436A1A70426A013229
:104C40004262428D013A4285428D002A08BF2A29DC
:104C500040F0E98001684A6822F480624A602221BB
:104C60000163282180F83D10D1E004F00401012205
:104C700082EA910141EA0C01C90740F0D48001B0F9
:104C8000BDE8F04004F0ECBD04F00401012282EA2A
:104C9000910141EA0C01C90740F0C580BEF1210F26
:104CA00040F0BA8001B0BDE8F04004F0DFBE690713
:104CB00040F1B980002B00F0B680418D002900F052
:104CC000B280416A11F8012B3A610EE0690740F1A8
:104CD000AA80002B00F0A780418D002900F0A3805E
:104CE0003969426A1170416A01314162418D01396D
:104CF000418598E00020009078690090B8690090A4
:104D0000009801B0F0BD54F8341F0A68526824F8C6
:104D10000A2C34F80A2C1AB1026C42F00402026424
:104D20007A68064622F4006208467A60FFF7FEF9C8
:104D300001463046012910D0206849F2E151C0F601
:104D400000010165FFF7DEF90146304629B121680F
:104D500004460A6D084690472046418DF9B1016826
:104D60004A69520709D50969426A1170426A0168A5
:104D700001324262428D013A42854A69520608D5A3
:104D80000969426A1170416A01314162418D0139FC
:104D90004185418D19B1016C41F004010164016C40
:104DA00021B101B0BDE8F04004F0A4BC2A2D08D127
:104DB00000210163282180F83D10044601F000F82D
:104DC000204690F83D10282915D10021CFF6FF711B
:104DD000C16200212022016380F83D2080F83E104E
:104DE00001B0BDE8F04000F04BB9406C062101EA8B
:104DF000D010F03077E6016B222918BF222D12D196
:104E000000212022016380F83D2080F83E1001B08F
:104E1000BDE8F04000F0D4BF402D04D101B0BDE8A2
:104E2000F04004F0BBBE01B0F0BD428D52B1428DE6
:104E3000012A13D1202918BF082922D1396821F469
:104E4000806139600021009179690091B969009110
:104E50000099396841F40071396057E0428D022AA7
:104E60000BD110292FD8012214238A40C0F201034C
:104E70001A4228D04FF480622BE03A6842F48062F4
:104E800029E011F5803F0BD1396821F48061396048
:104E900079680905D6D5396821F4806139602EE03A
:104EA000122B01D10129C9D11029F4D8012202FA0B
:104EB00001F11422C0F201021142ECD0396841F430
:104EC000806139601BE03A6822F480623A604FF4F6
:104ED00000623B681A433A607A6812050FD54A1E91
:104EE0001F2A17D8012303FA02F248F28103C8F2FD
:104EF00000031A420ED0796841F480517960002194
:104F0000009179690091B9690091009900210165CA
:104F100001B0F0BD11F5803FEDD0F0E77047000023
:104F2000002804BF01207047F0B581B0044690F816
:104F30003D0028B9002084F83C00204600F0A2FE85
:104F4000242084F83D002068016821F001010160FF
:104F5000016841F400410160016821F400410160F1
:104F600002F0B2F8636848F2A16CC0F2010C40F69E
:104F70000011C0F23D0163453CBF48F28041C0F2E0
:104F80001E01884202D2012001B0F0BD4DF68361BE
:104F9000C4F21B31A0FB01122168970CD1F804E088
:104FA0004FF496762EF03F0545EA92454D607743E3
:104FB00048F638160D6AC0F24106A7FB067625F0C2
:104FC0003F07634538BF960C721C3A430A62CA69B0
:104FD00048F2A0664CF6FF77C0F20106B34222EA1F
:104FE00007020AD801385B00B0FBF3F001306FF321
:104FF0001F30042898BF042019E0A768013857B172
:1050000019277B43B0FBF3F001306FF31F3068B119
:1050100000F5804007E003EB4303B0FBF3F0013001
:105020006FF31F3010B100F5004000E00120104385
:10503000C8610868D4E9072320F0C0001043184372
:105040000860886848F2FF3204F10C0790438CCF67
:1050500018431043A6698860C86820F0FF003843F1
:105060003043C860086840F001000860002020213B
:10507000206484F83D10206384F83E0001B0F0BD48
:105080007047000070470000704700002DE9F043B2
:1050900081B01F46164688460446FFF7B7FB94F8D2
:1050A0003D1020291DD1DDF820900546206881693A
:1050B000890712D5FFF7AAFB401B1A28F6D3002058
:1050C0002021206384F83D1084F83E00216C41F0DB
:1050D0002001216484F83C0003E094F83C1001298D
:1050E00003D1022001B0BDE8F083012184F83C1017
:1050F0000168C90703D1016841F00101016001683D
:1051000021F400610160222184F83D10102184F80F
:105110003E100021216466626785618D2185002132
:10512000CFF6FF71E162E16A026811F5803F42F457
:105130008062026018BF012947D1016841F4807183
:1051400001604169C90712D109F1010603E000BFFE
:105150004169C9070BD1002EFAD0FFF757FBB9F10F
:10516000000F7AD0401B484577D82068F0E72169C6
:10517000B1F5804F03D148F00101C9B284E00621A6
:1051800001EAD81606F1F0010161014651F8142F29
:10519000120720D409F1010705E02068014651F803
:1051A000142F120717D44269520500F1A380002F73
:1051B000F4D0FFF72BFBB9F1000F4FF0200100F006
:1051C000A180401B4845E8D99CE00829B5D0216B57
:1051D0001129B2D0B5E75FFA88F10161014651F8B3
:1051E000142F920718D409F1010705E02068014641
:1051F00051F8142F92070FD4426952057AD4002F28
:10520000F5D0FFF703FBB9F1000F4FF0200179D083
:10521000401B4845EAD975E00021009141690091A1
:10522000816900910099016841F4807101604169D0
:10523000C90727D109F1010703E000BF4169C90788
:1052400020D1002FFAD0FFF7E1FAB9F1000F04D016
:10525000401B484501D82068F0E70020202120634A
:1052600084F83D1084F83E00216C41F02001216457
:10527000216884F83C000868C00544BF4FF4007002
:10528000206433E146F0F1010161014651F8142F29
:10529000920719D409F1010606E000BF2068014613
:1052A00051F8142F92070FD44269520522D4002ED0
:1052B000F5D0FFF7ABFAB9F1000F4FF0200121D084
:1052C000401B4845EAD91DE0218D71B3022924D045
:1052D000012940D1026822F480620260002200921B
:1052E0004269009282690092009A026842F4007258
:1052F00002603BE0026842F4007202606FF480607A
:105300000860042100202022206384F83D2084F8D6
:105310003E00226C11432164E6E0026822F48062C0
:105320000260026842F4006218E0002100914169C5
:105330000091816900910099016841F40071016058
:10534000202084F83D00002084F83E0084F83C00D2
:1053500001B0BDE8F083026842F48062026000227E
:1053600000924269009280690090009888B20428F7
:1053700016D202282AD0012839D12068416949066D
:1053800000F196804169C90600F19680FFF73EFA68
:10539000B9F1000F00F09C80401B4845EDD997E023
:1053A0002068416949062FD44169C90600F184800B
:1053B000FFF72CFAB9F1000F00F08A80401B484536
:1053C000EED985E0401B484500F294802068416991
:1053D00049074DD419F10101F9D0FFF717FAB9F1D6
:1053E000000FEFD186E0401B484500F28380206823
:1053F000416949071BD419F10101F9D0FFF706FAF9
:10540000B9F1000FEFD175E00069616A0870606A58
:10541000218D01300139606221852268638D013B55
:10542000638553695B073FD51169017033E00168FB
:1054300021F4806101600069616A0870606A218DF1
:1054400001300139606221852068618D01396185F3
:10545000416949070CD419F10101F9D0FFF7D6F9D8
:10546000B9F1000F46D0401B484543D82068EFE70C
:10547000016841F4007101600069616A0870606A46
:105480002268411C6162218D01392185618D0139BC
:10549000618511694170606A218D01300139606256
:1054A0002185608D0138608508047FF45FAF47E790
:1054B0000069616A0870EEE76FF010014161002039
:1054C0002021206384F83D1084F83E00206C09E020
:1054D00000202021206384F83D1084F83E00206CD9
:1054E00040F020002064002084F83C00012001B03E
:1054F000BDE8F08300202021206384F83D1084F86B
:105500003E00216C41F0200105E700002DE9F04349
:1055100081B01F46164688460446FFF777F994F88F
:105520003D1020291ED1DDF82090054620688169B4
:10553000890713D5FFF76AF9401B1A28F6D3002014
:105540002021206384F83D1084F83E00216C02265F
:1055500041F02001216484F83C0004E094F83C1000
:10556000012904D10226304601B0BDE8F0830121B3
:1055700084F83C100168C90703D1016841F00101BA
:105580000160016821F400610160212184F83D106F
:10559000102184F83E100021216466626785618DC8
:1055A00021850021CFF6FF71E162E16A11F5803FAC
:1055B00018BF012946D1016841F480710160416939
:1055C000C90714D109F1010603E000BF4169C90709
:1055D0000DD1002EFAD0FFF719F9B9F1000F00F044
:1055E000DF80401B484500F2DB802068EEE7216940
:1055F000B1F5804F01D1FE212BE0062101EAD8113F
:10560000F0310161014651F8142F120720D409F13D
:10561000010605E02068014651F8142F120717D43F
:105620004269520500F1A980002EF4D0FFF7EEF890
:10563000B9F1000F4FF0200100F0A780401B484552
:10564000E8D9A2E00829B6D0216B1229B3D0B6E779
:10565000FF2101EA08010161014651F8142F920768
:1056600019D409F1010605E02068014651F8142F0C
:10567000920710D44269520500F17F80002EF4D0C9
:10568000FFF7C4F8B9F1000F4FF020017DD0401BA7
:105690004845E9D979E00026009641690091816981
:1056A00000910099218D00295BD009F1010700BF0D
:1056B000014651F8142F120612D44269520500F126
:1056C0008580002FF4D0FFF7A1F8B9F1000F4FF05B
:1056D000200100F07F80401B48457BD82068E7E729
:1056E000D4F824E0714611F8012B02616162618DEA
:1056F00001396185B4F828C00146ACF10102228568
:1057000051F8143F5B070DD513040BD09EF8012010
:1057100002610EF102026262628D013A6285ACF1B1
:10572000020222850B685B0707D51104C0D118E07F
:10573000014651F8142F520710D44269520545D43E
:10574000002FF5D0FFF762F8B9F1000F4FF02001FC
:1057500040D0401B48453DD82068E9E7228D110420
:10576000A6D1016841F400710160202084F83D0059
:1057700084F83E6084F83C60F5E6026842F400720A
:1057800002606FF480600860042100202022206302
:1057900084F83D2084F83E00226C01261143D9E6AE
:1057A00000202021206384F83D1084F83E00216C05
:1057B000012641F020012164216884F83C0008683A
:1057C000C00544BF4FF400702064CCE66FF48060E5
:1057D0000860042100202022206384F83D2084F802
:1057E0003E00226C1143216484F83C00206C0428A4
:1057F00006D120680126016841F400710160B2E61B
:105800000126B0E670470000704700002DE9F04F18
:1058100085B0984617460E460446FEF7F7FF94F803
:105820003D10202925D1DDF84090DDE90EAB05467D
:1058300020688169890717D5FEF7E8FF401B1A2801
:10584000F6D300202021206384F83D1084F83E0028
:10585000206C04F13C0240F0200020640220002172
:10586000117005B0BDE8F08F224612F83C1F0129E7
:1058700003D1022005B0BDE8F08F01210392117021
:105880000168C90703D1016841F0010101600168A5
:105890003A4621F400610160222084F83D00402056
:1058A00084F83E0000202064C4F824A0A4F82AB0A4
:1058B000608D314620850020CFF6FF70E0622046E3
:1058C0004346CDE9009504F0BBF918B1012005B0BD
:1058D000BDE8F08F208D00B3022812D001282FD10F
:1058E00021680A6822F480620A60002204924A69F0
:1058F00004928A690492049A0A6842F400720A6067
:1059000026E021680A6822F480620A600A6842F48C
:1059100000620A600022049215E0002004902068D2
:1059200041690491816904910499016841F400710D
:105930000160202084F83D00002084F83E00C2E091
:105940000021049121684A690492896904910499AB
:1059500009F1010680B2042818D202282AD00128B1
:1059600037D1039A20684169490600F18480416972
:10597000C90600F1AA80FEF749FF039AB9F1000FAA
:1059800000F0AF80401B4845ECD9AAE0206841698F
:1059900049062AD44169C90600F18880FEF736FF1E
:1059A000B9F1000F77D0401B4845EFD973E0401B99
:1059B000484570D820684169490748D4002EFAD07C
:1059C000FEF724FFB9F1000FF1D164E0401B484518
:1059D00061D820684169490719D4002EFAD0FEF732
:1059E00015FFB9F1000FF1D155E00069616A087047
:1059F000606A2268411C208D616201382085638DB8
:105A0000013B638553695B0741D5106935E0016847
:105A100021F4806101600069616A0870606A218D0B
:105A200001300139606221852068618D013961850D
:105A3000416949070BD4002EFAD0FEF7E7FEB9F111
:105A4000000F28D0401B484525D82068F0E70168A2
:105A500041F4007101600069616A0870606A22683F
:105A6000411C6162218D01392185618D013961857A
:105A70001169417002E00069616A0870606A218DF5
:105A800001306062481E2085618D01396185010405
:105A90007FF460AF4DE700202021206384F83D10A3
:105AA00084F83E00206C40F020000AE06FF0100106
:105AB000416100202021206384F83D1084F83E00DD
:105AC000206C20640120039AC9E66FF01001416147
:105AD00000202021206384F83D1084F83E00206CD3
